{"abi":[{"type":"constructor","inputs":[{"name":"sadSvgUri","type":"string","internalType":"string"},{"name":"happySvgUri","type":"string","internalType":"string"}],"stateMutability":"nonpayable"},{"type":"function","name":"approve","inputs":[{"name":"to","type":"address","internalType":"address"},{"name":"tokenId","type":"uint256","internalType":"uint256"}],"outputs":[],"stateMutability":"nonpayable"},{"type":"function","name":"balanceOf","inputs":[{"name":"owner","type":"address","internalType":"address"}],"outputs":[{"name":"","type":"uint256","internalType":"uint256"}],"stateMutability":"view"},{"type":"function","name":"flipMood","inputs":[{"name":"tokenId","type":"uint256","internalType":"uint256"}],"outputs":[],"stateMutability":"nonpayable"},{"type":"function","name":"getApproved","inputs":[{"name":"tokenId","type":"uint256","internalType":"uint256"}],"outputs":[{"name":"","type":"address","internalType":"address"}],"stateMutability":"view"},{"type":"function","name":"getHappySVG","inputs":[],"outputs":[{"name":"","type":"string","internalType":"string"}],"stateMutability":"view"},{"type":"function","name":"getSadSVG","inputs":[],"outputs":[{"name":"","type":"string","internalType":"string"}],"stateMutability":"view"},{"type":"function","name":"getTokenCounter","inputs":[],"outputs":[{"name":"","type":"uint256","internalType":"uint256"}],"stateMutability":"view"},{"type":"function","name":"isApprovedForAll","inputs":[{"name":"owner","type":"address","internalType":"address"},{"name":"operator","type":"address","internalType":"address"}],"outputs":[{"name":"","type":"bool","internalType":"bool"}],"stateMutability":"view"},{"type":"function","name":"mintNft","inputs":[],"outputs":[],"stateMutability":"nonpayable"},{"type":"function","name":"name","inputs":[],"outputs":[{"name":"","type":"string","internalType":"string"}],"stateMutability":"view"},{"type":"function","name":"owner","inputs":[],"outputs":[{"name":"","type":"address","internalType":"address"}],"stateMutability":"view"},{"type":"function","name":"ownerOf","inputs":[{"name":"tokenId","type":"uint256","internalType":"uint256"}],"outputs":[{"name":"","type":"address","internalType":"address"}],"stateMutability":"view"},{"type":"function","name":"renounceOwnership","inputs":[],"outputs":[],"stateMutability":"nonpayable"},{"type":"function","name":"safeTransferFrom","inputs":[{"name":"from","type":"address","internalType":"address"},{"name":"to","type":"address","internalType":"address"},{"name":"tokenId","type":"uint256","internalType":"uint256"}],"outputs":[],"stateMutability":"nonpayable"},{"type":"function","name":"safeTransferFrom","inputs":[{"name":"from","type":"address","internalType":"address"},{"name":"to","type":"address","internalType":"address"},{"name":"tokenId","type":"uint256","internalType":"uint256"},{"name":"data","type":"bytes","internalType":"bytes"}],"outputs":[],"stateMutability":"nonpayable"},{"type":"function","name":"setApprovalForAll","inputs":[{"name":"operator","type":"address","internalType":"address"},{"name":"approved","type":"bool","internalType":"bool"}],"outputs":[],"stateMutability":"nonpayable"},{"type":"function","name":"supportsInterface","inputs":[{"name":"interfaceId","type":"bytes4","internalType":"bytes4"}],"outputs":[{"name":"","type":"bool","internalType":"bool"}],"stateMutability":"view"},{"type":"function","name":"symbol","inputs":[],"outputs":[{"name":"","type":"string","internalType":"string"}],"stateMutability":"view"},{"type":"function","name":"tokenURI","inputs":[{"name":"tokenId","type":"uint256","internalType":"uint256"}],"outputs":[{"name":"","type":"string","internalType":"string"}],"stateMutability":"view"},{"type":"function","name":"transferFrom","inputs":[{"name":"from","type":"address","internalType":"address"},{"name":"to","type":"address","internalType":"address"},{"name":"tokenId","type":"uint256","internalType":"uint256"}],"outputs":[],"stateMutability":"nonpayable"},{"type":"function","name":"transferOwnership","inputs":[{"name":"newOwner","type":"address","internalType":"address"}],"outputs":[],"stateMutability":"nonpayable"},{"type":"event","name":"Approval","inputs":[{"name":"owner","type":"address","indexed":true,"internalType":"address"},{"name":"approved","type":"address","indexed":true,"internalType":"address"},{"name":"tokenId","type":"uint256","indexed":true,"internalType":"uint256"}],"anonymous":false},{"type":"event","name":"ApprovalForAll","inputs":[{"name":"owner","type":"address","indexed":true,"internalType":"address"},{"name":"operator","type":"address","indexed":true,"internalType":"address"},{"name":"approved","type":"bool","indexed":false,"internalType":"bool"}],"anonymous":false},{"type":"event","name":"CreatedNFT","inputs":[{"name":"tokenId","type":"uint256","indexed":true,"internalType":"uint256"}],"anonymous":false},{"type":"event","name":"OwnershipTransferred","inputs":[{"name":"previousOwner","type":"address","indexed":true,"internalType":"address"},{"name":"newOwner","type":"address","indexed":true,"internalType":"address"}],"anonymous":false},{"type":"event","name":"Transfer","inputs":[{"name":"from","type":"address","indexed":true,"internalType":"address"},{"name":"to","type":"address","indexed":true,"internalType":"address"},{"name":"tokenId","type":"uint256","indexed":true,"internalType":"uint256"}],"anonymous":false},{"type":"error","name":"ERC721IncorrectOwner","inputs":[{"name":"sender","type":"address","internalType":"address"},{"name":"tokenId","type":"uint256","internalType":"uint256"},{"name":"owner","type":"address","internalType":"address"}]},{"type":"error","name":"ERC721InsufficientApproval","inputs":[{"name":"operator","type":"address","internalType":"address"},{"name":"tokenId","type":"uint256","internalType":"uint256"}]},{"type":"error","name":"ERC721InvalidApprover","inputs":[{"name":"approver","type":"address","internalType":"address"}]},{"type":"error","name":"ERC721InvalidOperator","inputs":[{"name":"operator","type":"address","internalType":"address"}]},{"type":"error","name":"ERC721InvalidOwner","inputs":[{"name":"owner","type":"address","internalType":"address"}]},{"type":"error","name":"ERC721InvalidReceiver","inputs":[{"name":"receiver","type":"address","internalType":"address"}]},{"type":"error","name":"ERC721InvalidSender","inputs":[{"name":"sender","type":"address","internalType":"address"}]},{"type":"error","name":"ERC721Metadata__URI_QueryFor_NonExistentToken","inputs":[]},{"type":"error","name":"ERC721NonexistentToken","inputs":[{"name":"tokenId","type":"uint256","internalType":"uint256"}]},{"type":"error","name":"MoodNft__CantFlipMoodIfNotOwner","inputs":[]},{"type":"error","name":"OwnableInvalidOwner","inputs":[{"name":"owner","type":"address","internalType":"address"}]},{"type":"error","name":"OwnableUnauthorizedAccount","inputs":[{"name":"account","type":"address","internalType":"address"}]}],"bytecode":{"object":"0x608060405234801561000f575f5ffd5b50604051612f33380380612f338339818101604052810190610031919061037d565b336040518060400160405280600881526020017f4d6f6f64204e46540000000000000000000000000000000000000000000000008152506040518060400160405280600281526020017f4d4e000000000000000000000000000000000000000000000000000000000000815250815f90816100ac9190610603565b5080600190816100bc9190610603565b5050505f73ffffffffffffffffffffffffffffffffffffffff168173ffffffffffffffffffffffffffffffffffffffff160361012f575f6040517f1e4fbdf70000000000000000000000000000000000000000000000000000000081526004016101269190610711565b60405180910390fd5b61013e8161016d60201b60201c565b505f60078190555081600890816101559190610603565b5080600990816101659190610603565b50505061072a565b5f60065f9054906101000a900473ffffffffffffffffffffffffffffffffffffffff1690508160065f6101000a81548173ffffffffffffffffffffffffffffffffffffffff021916908373ffffffffffffffffffffffffffffffffffffffff1602179055508173ffffffffffffffffffffffffffffffffffffffff168173ffffffffffffffffffffffffffffffffffffffff167f8be0079c531659141344cd1fd0a4f28419497f9722a3daafe3b4186f6b6457e060405160405180910390a35050565b5f604051905090565b5f5ffd5b5f5ffd5b5f5ffd5b5f5ffd5b5f601f19601f8301169050919050565b7f4e487b71000000000000000000000000000000000000000000000000000000005f52604160045260245ffd5b61028f82610249565b810181811067ffffffffffffffff821117156102ae576102ad610259565b5b80604052505050565b5f6102c0610230565b90506102cc8282610286565b919050565b5f67ffffffffffffffff8211156102eb576102ea610259565b5b6102f482610249565b9050602081019050919050565b8281835e5f83830152505050565b5f61032161031c846102d1565b6102b7565b90508281526020810184848401111561033d5761033c610245565b5b610348848285610301565b509392505050565b5f82601f83011261036457610363610241565b5b815161037484826020860161030f565b91505092915050565b5f5f6040838503121561039357610392610239565b5b5f83015167ffffffffffffffff8111156103b0576103af61023d565b5b6103bc85828601610350565b925050602083015167ffffffffffffffff8111156103dd576103dc61023d565b5b6103e985828601610350565b9150509250929050565b5f81519050919050565b7f4e487b71000000000000000000000000000000000000000000000000000000005f52602260045260245ffd5b5f600282049050600182168061044157607f821691505b602082108103610454576104536103fd565b5b50919050565b5f819050815f5260205f209050919050565b5f6020601f8301049050919050565b5f82821b905092915050565b5f600883026104b67fffffffffffffffffffffffffffffffffffffffffffffffffffffffffffffffff8261047b565b6104c0868361047b565b95508019841693508086168417925050509392505050565b5f819050919050565b5f819050919050565b5f6105046104ff6104fa846104d8565b6104e1565b6104d8565b9050919050565b5f819050919050565b61051d836104ea565b6105316105298261050b565b848454610487565b825550505050565b5f5f905090565b610548610539565b610553818484610514565b505050565b5b818110156105765761056b5f82610540565b600181019050610559565b5050565b601f8211156105bb5761058c8161045a565b6105958461046c565b810160208510156105a4578190505b6105b86105b08561046c565b830182610558565b50505b505050565b5f82821c905092915050565b5f6105db5f19846008026105c0565b1980831691505092915050565b5f6105f383836105cc565b9150826002028217905092915050565b61060c826103f3565b67ffffffffffffffff81111561062557610624610259565b5b61062f825461042a565b61063a82828561057a565b5f60209050601f83116001811461066b575f8415610659578287015190505b61066385826105e8565b8655506106ca565b601f1984166106798661045a565b5f5b828110156106a05784890151825560018201915060208501945060208101905061067b565b868310156106bd57848901516106b9601f8916826105cc565b8355505b6001600288020188555050505b505050505050565b5f73ffffffffffffffffffffffffffffffffffffffff82169050919050565b5f6106fb826106d2565b9050919050565b61070b816106f1565b82525050565b5f6020820190506107245f830184610702565b92915050565b6127fc806107375f395ff3fe608060405234801561000f575f5ffd5b5060043610610135575f3560e01c8063715018a6116100b6578063c1a147a01161007a578063c1a147a014610325578063c2229fea14610341578063c87b56dd1461034b578063e985e9c51461037b578063f2fde38b146103ab578063fc842121146103c757610135565b8063715018a6146102a75780638da5cb5b146102b157806395d89b41146102cf578063a22cb465146102ed578063b88d4fde1461030957610135565b806342842e0e116100fd57806342842e0e146101ef5780635de0682f1461020b5780636352211e146102295780636e02007d1461025957806370a082311461027757610135565b806301ffc9a71461013957806306fdde0314610169578063081812fc14610187578063095ea7b3146101b757806323b872dd146101d3575b5f5ffd5b610153600480360381019061014e9190611d5a565b6103e5565b6040516101609190611d9f565b60405180910390f35b6101716104c6565b60405161017e9190611e28565b60405180910390f35b6101a1600480360381019061019c9190611e7b565b610555565b6040516101ae9190611ee5565b60405180910390f35b6101d160048036038101906101cc9190611f28565b610570565b005b6101ed60048036038101906101e89190611f66565b610586565b005b61020960048036038101906102049190611f66565b610685565b005b6102136106a4565b6040516102209190611e28565b60405180910390f35b610243600480360381019061023e9190611e7b565b610734565b6040516102509190611ee5565b60405180910390f35b610261610745565b60405161026e9190611fc5565b60405180910390f35b610291600480360381019061028c9190611fde565b61074e565b60405161029e9190611fc5565b60405180910390f35b6102af610804565b005b6102b9610817565b6040516102c69190611ee5565b60405180910390f35b6102d761083f565b6040516102e49190611e28565b60405180910390f35b61030760048036038101906103029190612033565b6108cf565b005b610323600480360381019061031e919061219d565b6108e5565b005b61033f600480360381019061033a9190611e7b565b61090a565b005b610349610a7b565b005b61036560048036038101906103609190611e7b565b610ad0565b6040516103729190611e28565b60405180910390f35b6103956004803603810190610390919061221d565b610d00565b6040516103a29190611d9f565b60405180910390f35b6103c560048036038101906103c09190611fde565b610d8e565b005b6103cf610e12565b6040516103dc9190611e28565b60405180910390f35b5f7f80ac58cd000000000000000000000000000000000000000000000000000000007bffffffffffffffffffffffffffffffffffffffffffffffffffffffff1916827bffffffffffffffffffffffffffffffffffffffffffffffffffffffff191614806104af57507f5b5e139f000000000000000000000000000000000000000000000000000000007bffffffffffffffffffffffffffffffffffffffffffffffffffffffff1916827bffffffffffffffffffffffffffffffffffffffffffffffffffffffff1916145b806104bf57506104be82610ea2565b5b9050919050565b60605f80546104d490612288565b80601f016020809104026020016040519081016040528092919081815260200182805461050090612288565b801561054b5780601f106105225761010080835404028352916020019161054b565b820191905f5260205f20905b81548152906001019060200180831161052e57829003601f168201915b5050505050905090565b5f61055f82610f0b565b5061056982610f91565b9050919050565b610582828261057d610fca565b610fd1565b5050565b5f73ffffffffffffffffffffffffffffffffffffffff168273ffffffffffffffffffffffffffffffffffffffff16036105f6575f6040517f64a0ae920000000000000000000000000000000000000000000000000000000081526004016105ed9190611ee5565b60405180910390fd5b5f6106098383610604610fca565b610fe3565b90508373ffffffffffffffffffffffffffffffffffffffff168173ffffffffffffffffffffffffffffffffffffffff161461067f578382826040517f64283d7b000000000000000000000000000000000000000000000000000000008152600401610676939291906122b8565b60405180910390fd5b50505050565b61069f83838360405180602001604052805f8152506108e5565b505050565b6060600880546106b390612288565b80601f01602080910402602001604051908101604052809291908181526020018280546106df90612288565b801561072a5780601f106107015761010080835404028352916020019161072a565b820191905f5260205f20905b81548152906001019060200180831161070d57829003601f168201915b5050505050905090565b5f61073e82610f0b565b9050919050565b5f600754905090565b5f5f73ffffffffffffffffffffffffffffffffffffffff168273ffffffffffffffffffffffffffffffffffffffff16036107bf575f6040517f89c62b640000000000000000000000000000000000000000000000000000000081526004016107b69190611ee5565b60405180910390fd5b60035f8373ffffffffffffffffffffffffffffffffffffffff1673ffffffffffffffffffffffffffffffffffffffff1681526020019081526020015f20549050919050565b61080c6111ee565b6108155f611275565b565b5f60065f9054906101000a900473ffffffffffffffffffffffffffffffffffffffff16905090565b60606001805461084e90612288565b80601f016020809104026020016040519081016040528092919081815260200182805461087a90612288565b80156108c55780601f1061089c576101008083540402835291602001916108c5565b820191905f5260205f20905b8154815290600101906020018083116108a857829003601f168201915b5050505050905090565b6108e16108da610fca565b8383611338565b5050565b6108f0848484610586565b6109046108fb610fca565b858585856114a1565b50505050565b3373ffffffffffffffffffffffffffffffffffffffff1661092a82610555565b73ffffffffffffffffffffffffffffffffffffffff161415801561098257503373ffffffffffffffffffffffffffffffffffffffff1661096982610734565b73ffffffffffffffffffffffffffffffffffffffff1614155b156109b9576040517f85046ca700000000000000000000000000000000000000000000000000000000815260040160405180910390fd5b5f60018111156109cc576109cb6122ed565b5b600a5f8381526020019081526020015f205f9054906101000a900460ff1660018111156109fc576109fb6122ed565b5b03610a3f576001600a5f8381526020019081526020015f205f6101000a81548160ff02191690836001811115610a3557610a346122ed565b5b0217905550610a78565b5f600a5f8381526020019081526020015f205f6101000a81548160ff02191690836001811115610a7257610a716122ed565b5b02179055505b50565b5f6007549050610a8b338261164d565b6001600754610a9a9190612347565b600781905550807f72102923c3d44433bd725cb2c744a4c92a536ad249b665dec9853a16ed66552560405160405180910390a250565b60605f73ffffffffffffffffffffffffffffffffffffffff16610af283610734565b73ffffffffffffffffffffffffffffffffffffffff1603610b3f576040517f6df5edae00000000000000000000000000000000000000000000000000000000815260040160405180910390fd5b5f60098054610b4d90612288565b80601f0160208091040260200160405190810160405280929190818152602001828054610b7990612288565b8015610bc45780601f10610b9b57610100808354040283529160200191610bc4565b820191905f5260205f20905b815481529060010190602001808311610ba757829003601f168201915b50505050509050600180811115610bde57610bdd6122ed565b5b600a5f8581526020019081526020015f205f9054906101000a900460ff166001811115610c0e57610c0d6122ed565b5b03610c9f5760088054610c2090612288565b80601f0160208091040260200160405190810160405280929190818152602001828054610c4c90612288565b8015610c975780601f10610c6e57610100808354040283529160200191610c97565b820191905f5260205f20905b815481529060010190602001808311610c7a57829003601f168201915b505050505090505b610ca761166a565b610cd8610cb26104c6565b83604051602001610cc4929190612574565b6040516020818303038152906040526116a7565b604051602001610ce99291906125c3565b604051602081830303815290604052915050919050565b5f60055f8473ffffffffffffffffffffffffffffffffffffffff1673ffffffffffffffffffffffffffffffffffffffff1681526020019081526020015f205f8373ffffffffffffffffffffffffffffffffffffffff1673ffffffffffffffffffffffffffffffffffffffff1681526020019081526020015f205f9054906101000a900460ff16905092915050565b610d966111ee565b5f73ffffffffffffffffffffffffffffffffffffffff168173ffffffffffffffffffffffffffffffffffffffff1603610e06575f6040517f1e4fbdf7000000000000000000000000000000000000000000000000000000008152600401610dfd9190611ee5565b60405180910390fd5b610e0f81611275565b50565b606060098054610e2190612288565b80601f0160208091040260200160405190810160405280929190818152602001828054610e4d90612288565b8015610e985780601f10610e6f57610100808354040283529160200191610e98565b820191905f5260205f20905b815481529060010190602001808311610e7b57829003601f168201915b5050505050905090565b5f7f01ffc9a7000000000000000000000000000000000000000000000000000000007bffffffffffffffffffffffffffffffffffffffffffffffffffffffff1916827bffffffffffffffffffffffffffffffffffffffffffffffffffffffff1916149050919050565b5f5f610f16836116d4565b90505f73ffffffffffffffffffffffffffffffffffffffff168173ffffffffffffffffffffffffffffffffffffffff1603610f8857826040517f7e273289000000000000000000000000000000000000000000000000000000008152600401610f7f9190611fc5565b60405180910390fd5b80915050919050565b5f60045f8381526020019081526020015f205f9054906101000a900473ffffffffffffffffffffffffffffffffffffffff169050919050565b5f33905090565b610fde838383600161170d565b505050565b5f5f610fee846116d4565b90505f73ffffffffffffffffffffffffffffffffffffffff168373ffffffffffffffffffffffffffffffffffffffff161461102f5761102e8184866118cc565b5b5f73ffffffffffffffffffffffffffffffffffffffff168173ffffffffffffffffffffffffffffffffffffffff16146110ba5761106e5f855f5f61170d565b600160035f8373ffffffffffffffffffffffffffffffffffffffff1673ffffffffffffffffffffffffffffffffffffffff1681526020019081526020015f205f82825403925050819055505b5f73ffffffffffffffffffffffffffffffffffffffff168573ffffffffffffffffffffffffffffffffffffffff161461113957600160035f8773ffffffffffffffffffffffffffffffffffffffff1673ffffffffffffffffffffffffffffffffffffffff1681526020019081526020015f205f82825401925050819055505b8460025f8681526020019081526020015f205f6101000a81548173ffffffffffffffffffffffffffffffffffffffff021916908373ffffffffffffffffffffffffffffffffffffffff160217905550838573ffffffffffffffffffffffffffffffffffffffff168273ffffffffffffffffffffffffffffffffffffffff167fddf252ad1be2c89b69c2b068fc378daa952ba7f163c4a11628f55a4df523b3ef60405160405180910390a4809150509392505050565b6111f6610fca565b73ffffffffffffffffffffffffffffffffffffffff16611214610817565b73ffffffffffffffffffffffffffffffffffffffff161461127357611237610fca565b6040517f118cdaa700000000000000000000000000000000000000000000000000000000815260040161126a9190611ee5565b60405180910390fd5b565b5f60065f9054906101000a900473ffffffffffffffffffffffffffffffffffffffff1690508160065f6101000a81548173ffffffffffffffffffffffffffffffffffffffff021916908373ffffffffffffffffffffffffffffffffffffffff1602179055508173ffffffffffffffffffffffffffffffffffffffff168173ffffffffffffffffffffffffffffffffffffffff167f8be0079c531659141344cd1fd0a4f28419497f9722a3daafe3b4186f6b6457e060405160405180910390a35050565b5f73ffffffffffffffffffffffffffffffffffffffff168273ffffffffffffffffffffffffffffffffffffffff16036113a857816040517f5b08ba1800000000000000000000000000000000000000000000000000000000815260040161139f9190611ee5565b60405180910390fd5b8060055f8573ffffffffffffffffffffffffffffffffffffffff1673ffffffffffffffffffffffffffffffffffffffff1681526020019081526020015f205f8473ffffffffffffffffffffffffffffffffffffffff1673ffffffffffffffffffffffffffffffffffffffff1681526020019081526020015f205f6101000a81548160ff0219169083151502179055508173ffffffffffffffffffffffffffffffffffffffff168373ffffffffffffffffffffffffffffffffffffffff167f17307eab39ab6107e8899845ad3d59bd9653f200f220920489ca2b5937696c31836040516114949190611d9f565b60405180910390a3505050565b5f8373ffffffffffffffffffffffffffffffffffffffff163b1115611646578273ffffffffffffffffffffffffffffffffffffffff1663150b7a02868685856040518563ffffffff1660e01b81526004016114ff9493929190612638565b6020604051808303815f875af192505050801561153a57506040513d601f19601f820116820180604052508101906115379190612696565b60015b6115bb573d805f8114611568576040519150601f19603f3d011682016040523d82523d5f602084013e61156d565b606091505b505f8151036115b357836040517f64a0ae920000000000000000000000000000000000000000000000000000000081526004016115aa9190611ee5565b60405180910390fd5b805160208201fd5b63150b7a0260e01b7bffffffffffffffffffffffffffffffffffffffffffffffffffffffff1916817bffffffffffffffffffffffffffffffffffffffffffffffffffffffff19161461164457836040517f64a0ae9200000000000000000000000000000000000000000000000000000000815260040161163b9190611ee5565b60405180910390fd5b505b5050505050565b611666828260405180602001604052805f81525061198f565b5050565b60606040518060400160405280601d81526020017f646174613a6170706c69636174696f6e2f6a736f6e3b6261736536342c000000815250905090565b60606116cd826040518060600160405280604081526020016127876040913960016119b2565b9050919050565b5f60025f8381526020019081526020015f205f9054906101000a900473ffffffffffffffffffffffffffffffffffffffff169050919050565b808061174557505f73ffffffffffffffffffffffffffffffffffffffff168273ffffffffffffffffffffffffffffffffffffffff1614155b15611877575f61175484610f0b565b90505f73ffffffffffffffffffffffffffffffffffffffff168373ffffffffffffffffffffffffffffffffffffffff16141580156117be57508273ffffffffffffffffffffffffffffffffffffffff168173ffffffffffffffffffffffffffffffffffffffff1614155b80156117d157506117cf8184610d00565b155b1561181357826040517fa9fbf51f00000000000000000000000000000000000000000000000000000000815260040161180a9190611ee5565b60405180910390fd5b811561187557838573ffffffffffffffffffffffffffffffffffffffff168273ffffffffffffffffffffffffffffffffffffffff167f8c5be1e5ebec7d5bd14f71427d1e84f3dd0314c0f7b2291e5b200ac8c7c3b92560405160405180910390a45b505b8360045f8581526020019081526020015f205f6101000a81548173ffffffffffffffffffffffffffffffffffffffff021916908373ffffffffffffffffffffffffffffffffffffffff16021790555050505050565b6118d7838383611b41565b61198a575f73ffffffffffffffffffffffffffffffffffffffff168373ffffffffffffffffffffffffffffffffffffffff160361194b57806040517f7e2732890000000000000000000000000000000000000000000000000000000081526004016119429190611fc5565b60405180910390fd5b81816040517f177e802f0000000000000000000000000000000000000000000000000000000081526004016119819291906126c1565b60405180910390fd5b505050565b6119998383611c01565b6119ad6119a4610fca565b5f8585856114a1565b505050565b60605f8451036119d25760405180602001604052805f8152509050611b3a565b5f82611a035760036002865160046119ea91906126e8565b6119f49190612347565b6119fe9190612756565b611a2a565b600360028651611a139190612347565b611a1d9190612756565b6004611a2991906126e8565b5b90505f8167ffffffffffffffff811115611a4757611a46612079565b5b6040519080825280601f01601f191660200182016040528015611a795781602001600182028036833780820191505090505b509050600185016020820187885189016020810180515f82525b82841015611aee576003840193508351603f8160121c168701518653600186019550603f81600c1c168701518653600186019550603f8160061c168701518653600186019550603f8116870151865360018601955050611a93565b8082528915611b2e5760038c510660018114611b115760028114611b2457611b2c565b603d6001870353603d6002870353611b2c565b603d60018703535b505b50505050505080925050505b9392505050565b5f5f73ffffffffffffffffffffffffffffffffffffffff168373ffffffffffffffffffffffffffffffffffffffff1614158015611bf857508273ffffffffffffffffffffffffffffffffffffffff168473ffffffffffffffffffffffffffffffffffffffff161480611bb95750611bb88484610d00565b5b80611bf757508273ffffffffffffffffffffffffffffffffffffffff16611bdf83610f91565b73ffffffffffffffffffffffffffffffffffffffff16145b5b90509392505050565b5f73ffffffffffffffffffffffffffffffffffffffff168273ffffffffffffffffffffffffffffffffffffffff1603611c71575f6040517f64a0ae92000000000000000000000000000000000000000000000000000000008152600401611c689190611ee5565b60405180910390fd5b5f611c7d83835f610fe3565b90505f73ffffffffffffffffffffffffffffffffffffffff168173ffffffffffffffffffffffffffffffffffffffff1614611cef575f6040517f73c6ac6e000000000000000000000000000000000000000000000000000000008152600401611ce69190611ee5565b60405180910390fd5b505050565b5f604051905090565b5f5ffd5b5f5ffd5b5f7fffffffff0000000000000000000000000000000000000000000000000000000082169050919050565b611d3981611d05565b8114611d43575f5ffd5b50565b5f81359050611d5481611d30565b92915050565b5f60208284031215611d6f57611d6e611cfd565b5b5f611d7c84828501611d46565b91505092915050565b5f8115159050919050565b611d9981611d85565b82525050565b5f602082019050611db25f830184611d90565b92915050565b5f81519050919050565b5f82825260208201905092915050565b8281835e5f83830152505050565b5f601f19601f8301169050919050565b5f611dfa82611db8565b611e048185611dc2565b9350611e14818560208601611dd2565b611e1d81611de0565b840191505092915050565b5f6020820190508181035f830152611e408184611df0565b905092915050565b5f819050919050565b611e5a81611e48565b8114611e64575f5ffd5b50565b5f81359050611e7581611e51565b92915050565b5f60208284031215611e9057611e8f611cfd565b5b5f611e9d84828501611e67565b91505092915050565b5f73ffffffffffffffffffffffffffffffffffffffff82169050919050565b5f611ecf82611ea6565b9050919050565b611edf81611ec5565b82525050565b5f602082019050611ef85f830184611ed6565b92915050565b611f0781611ec5565b8114611f11575f5ffd5b50565b5f81359050611f2281611efe565b92915050565b5f5f60408385031215611f3e57611f3d611cfd565b5b5f611f4b85828601611f14565b9250506020611f5c85828601611e67565b9150509250929050565b5f5f5f60608486031215611f7d57611f7c611cfd565b5b5f611f8a86828701611f14565b9350506020611f9b86828701611f14565b9250506040611fac86828701611e67565b9150509250925092565b611fbf81611e48565b82525050565b5f602082019050611fd85f830184611fb6565b92915050565b5f60208284031215611ff357611ff2611cfd565b5b5f61200084828501611f14565b91505092915050565b61201281611d85565b811461201c575f5ffd5b50565b5f8135905061202d81612009565b92915050565b5f5f6040838503121561204957612048611cfd565b5b5f61205685828601611f14565b92505060206120678582860161201f565b9150509250929050565b5f5ffd5b5f5ffd5b7f4e487b71000000000000000000000000000000000000000000000000000000005f52604160045260245ffd5b6120af82611de0565b810181811067ffffffffffffffff821117156120ce576120cd612079565b5b80604052505050565b5f6120e0611cf4565b90506120ec82826120a6565b919050565b5f67ffffffffffffffff82111561210b5761210a612079565b5b61211482611de0565b9050602081019050919050565b828183375f83830152505050565b5f61214161213c846120f1565b6120d7565b90508281526020810184848401111561215d5761215c612075565b5b612168848285612121565b509392505050565b5f82601f83011261218457612183612071565b5b813561219484826020860161212f565b91505092915050565b5f5f5f5f608085870312156121b5576121b4611cfd565b5b5f6121c287828801611f14565b94505060206121d387828801611f14565b93505060406121e487828801611e67565b925050606085013567ffffffffffffffff81111561220557612204611d01565b5b61221187828801612170565b91505092959194509250565b5f5f6040838503121561223357612232611cfd565b5b5f61224085828601611f14565b925050602061225185828601611f14565b9150509250929050565b7f4e487b71000000000000000000000000000000000000000000000000000000005f52602260045260245ffd5b5f600282049050600182168061229f57607f821691505b6020821081036122b2576122b161225b565b5b50919050565b5f6060820190506122cb5f830186611ed6565b6122d86020830185611fb6565b6122e56040830184611ed6565b949350505050565b7f4e487b71000000000000000000000000000000000000000000000000000000005f52602160045260245ffd5b7f4e487b71000000000000000000000000000000000000000000000000000000005f52601160045260245ffd5b5f61235182611e48565b915061235c83611e48565b92508282019050808211156123745761237361231a565b5b92915050565b5f81905092915050565b7f7b226e616d65223a2200000000000000000000000000000000000000000000005f82015250565b5f6123b860098361237a565b91506123c382612384565b600982019050919050565b5f6123d882611db8565b6123e2818561237a565b93506123f2818560208601611dd2565b80840191505092915050565b7f222c20226465736372697074696f6e223a22416e204e465420746861742072655f8201527f666c6563747320746865206d6f6f64206f6620746865206f776e65722c20313060208201527f3025206f6e20436861696e21222c200000000000000000000000000000000000604082015250565b5f61247e604f8361237a565b9150612489826123fe565b604f82019050919050565b7f2261747472696275746573223a205b7b2274726169745f74797065223a20226d5f8201527f6f6f64696e657373222c202276616c7565223a203130307d5d2c2022696d616760208201527f65223a2200000000000000000000000000000000000000000000000000000000604082015250565b5f61251460448361237a565b915061251f82612494565b604482019050919050565b7f227d0000000000000000000000000000000000000000000000000000000000005f82015250565b5f61255e60028361237a565b91506125698261252a565b600282019050919050565b5f61257e826123ac565b915061258a82856123ce565b915061259582612472565b91506125a082612508565b91506125ac82846123ce565b91506125b782612552565b91508190509392505050565b5f6125ce82856123ce565b91506125da82846123ce565b91508190509392505050565b5f81519050919050565b5f82825260208201905092915050565b5f61260a826125e6565b61261481856125f0565b9350612624818560208601611dd2565b61262d81611de0565b840191505092915050565b5f60808201905061264b5f830187611ed6565b6126586020830186611ed6565b6126656040830185611fb6565b81810360608301526126778184612600565b905095945050505050565b5f8151905061269081611d30565b92915050565b5f602082840312156126ab576126aa611cfd565b5b5f6126b884828501612682565b91505092915050565b5f6040820190506126d45f830185611ed6565b6126e16020830184611fb6565b9392505050565b5f6126f282611e48565b91506126fd83611e48565b925082820261270b81611e48565b915082820484148315176127225761272161231a565b5b5092915050565b7f4e487b71000000000000000000000000000000000000000000000000000000005f52601260045260245ffd5b5f61276082611e48565b915061276b83611e48565b92508261277b5761277a612729565b5b82820490509291505056fe4142434445464748494a4b4c4d4e4f505152535455565758595a6162636465666768696a6b6c6d6e6f707172737475767778797a303132333435363738392b2fa2646970667358221220ce203bf43fd3b210457493c96ec2936fd8a811ddab87af94f9da3760a223711e64736f6c634300081e0033","linkReferences":{}},"methodIdentifiers":{"approve(address,uint256)":"095ea7b3","balanceOf(address)":"70a08231","flipMood(uint256)":"c1a147a0","getApproved(uint256)":"081812fc","getHappySVG()":"fc842121","getSadSVG()":"5de0682f","getTokenCounter()":"6e02007d","isApprovedForAll(address,address)":"e985e9c5","mintNft()":"c2229fea","name()":"06fdde03","owner()":"8da5cb5b","ownerOf(uint256)":"6352211e","renounceOwnership()":"715018a6","safeTransferFrom(address,address,uint256)":"42842e0e","safeTransferFrom(address,address,uint256,bytes)":"b88d4fde","setApprovalForAll(address,bool)":"a22cb465","supportsInterface(bytes4)":"01ffc9a7","symbol()":"95d89b41","tokenURI(uint256)":"c87b56dd","transferFrom(address,address,uint256)":"23b872dd","transferOwnership(address)":"f2fde38b"},"id":36}